:020000040800F2
:1000000000100020890700089505000897050008E2
:1000100000000000000000000000000000000000E0
:10002000000000000000000000000000990500082A
:1000300000000000000000009B0500089D0500086E
:10004000D907000800000000D9070008D9070008F8
:10005000D9070008D9070008D9070008D907000800
:1000600000000000A5050008D9070008D90700080E
:10007000B5050008D9070008D907000800000000EE
:10008000D90700080000000000000000C5050008B6
:1000900000000000D9070008D9070008D5050008AE
:1000A00000000000D907000800000000D907000880
:1000B0000000000000000000000000000000000040
:1000C00010B5064C2378002B07D1054B002B02D02E
:1000D000044800E000BF0123237010BD3C04002051
:1000E0000000000088270008044B10B5002B03D047
:1000F0000349044800E000BF10BDC04600000000F6
:100100004004002088270008002243088B4274D353
:1001100003098B425FD3030A8B4244D3030B8B4208
:1001200028D3030C8B420DD3FF22090212BA030C11
:100130008B4202D31212090265D0030B8B4219D3F2
:1001400000E0090AC30B8B4201D3CB03C01A524112
:10015000830B8B4201D38B03C01A5241430B8B425A
:1001600001D34B03C01A5241030B8B4201D30B0343
:10017000C01A5241C30A8B4201D3CB02C01A52416A
:10018000830A8B4201D38B02C01A5241430A8B422D
:1001900001D34B02C01A5241030A8B4201D30B0216
:1001A000C01A5241CDD2C3098B4201D3CB01C01A30
:1001B000524183098B4201D38B01C01A524143093A
:1001C0008B4201D34B01C01A524103098B4201D328
:1001D0000B01C01A5241C3088B4201D3CB00C01A95
:1001E000524183088B4201D38B00C01A524143080D
:1001F0008B4201D34B00C01A5241411A00D2014632
:10020000524110467047FFE701B5002000F006F8A4
:1002100002BDC0460029F7D076E770477047C04658
:1002200000B585B00C22002101A802F0D7F91848CA
:10023000184B0360002343608360C36001220261A6
:1002400004214161037643768376C376C221FF3170
:10025000C16103629E39FF394354826200F008FB9A
:1002600000280FD10423019380235B010293802394
:100270005B05039301A9064800F028FC002804D17F
:1002800005B000BD00F016F9ECE700F013F9F7E750
:10029000580400200024014010B588B00400142246
:1002A000002103A802F09AF9224B22689A4201D059
:1002B00008B010BD204B99698020800001439961EE
:1002C0009A6902400192019A5A69802189020A437F
:1002D0005A615B690B400293029B102303930D3B11
:1002E00004937138FF3803A9C00500F099FD134845
:1002F000134B03600023436083608022C26080321E
:1003000002618022D20042618361C36100F0E2FC9D
:1003100000280BD1094B23635C62002201210C20D1
:1003200000F06EFC0C2000F09BFCC1E700F0C2F86E
:10033000F0E7C0460024014000100240980400206D
:100340000800024000B583B0094A516901231943EE
:100350005161526913400193019B00220021092041
:1003600000F04EFC092000F07BFC03B000BDC0464D
:100370000010024010B588B01422002103A802F03A
:100380002DF9134B59698020C003014359615A6903
:1003900002400192019A5A69802189020A435A61F6
:1003A0005B690B400293029B0A4C00220321200050
:1003B00000F0FCFD03230393023B04930023059309
:1003C000069303A9200000F02BFD08B010BDC04625
:1003D000001002400014004810B51548154B03608A
:1003E000154B436016238360153BC36080231B02BB
:1003F0000361002343618361C361036200F022FE55
:1004000000280CD100210A4801F0EEF9002809D19A
:100410000021074801F014FA002806D110BD00F0B1
:1004200049F8EFE700F046F8F2E700F043F8F5E7A7
:10043000DC040020005400400E09002010B588B0F4
:1004400004001422002103A802F0C8F82268174B08
:100450009A4201D008B010BD154C62698021890212
:100460000A43626163690B400193019BC023DB0077
:100470000393122304930F3B0693013307939020B9
:1004800003A9C00500F0CCFCE269802189030A437E
:10049000E261E3690B400293029B002200211720D6
:1004A00000F0AEFB172000F0DBFBD3E70054004068
:1004B0000010024072B6FEE710B594B03022002161
:1004C00008A802F08BF810241022002104A802F0E2
:1004D00085F810220021684602F080F81223089364
:1004E000113B0B930D930C940E9401331093A023A6
:1004F0009B03129308A801F0CDF9002817D1072318
:100500000493053B0593002306930793012104A858
:1005100001F038FC00280CD1202300930023039322
:10052000684601F0C9FC002805D114B010BDFFF7E2
:10053000C1FFFFF7BFFFFFF7BDFF10B500F076F971
:10054000FFF7BAFFFFF716FFFFF7FCFEFFF768FEA5
:10055000FFF742FF00F0CAF800F050F802F01AF876
:10056000FEE7000082B00A4B9969012211439961AC
:1005700099690A400092009ADA69802149050A4384
:10058000DA61DB690B400193019B02B07047C04602
:1005900000100240FEE7FEE77047704710B500F01C
:1005A00055F910BD10B5024800F0E1FB10BDC04682
:1005B0009804002010B5024800F020FA10BDC04693
:1005C0005804002010B5024801F0BDFD10BDC04622
:1005D0003005002010B5074B1B689A69E023DB004B
:1005E0001A4203D0034801F0C1F810BD014800F0E1
:1005F00097FDFAE7DC0400207047000010B50A48B8
:100600000A4B03602F23436000238360F422FF32F0
:10061000C2600361836101F07DFE002800D110BD3E
:10062000FFF748FFFBE7C0463005002000200040F0
:1006300082B00268074B9A4201D002B07047064A66
:10064000D16902231943D161D26913400193019BFF
:10065000F3E7C046000400400010024000B583B03C
:1006600002680C4B9A4201D003B000BD0A4AD1691E
:10067000802040000143D161D36903400193019B75
:1006800000220321ED3800F0BBFA132000F0E8FA55
:10069000EAE7C046002000400010024010B586B0D6
:1006A00004001422002101A801F098FF22680D4BDC
:1006B0009A4201D006B010BD0B4A516980208002D9
:1006C00001435161536903400093009BC023019390
:1006D000BE3B0293013B0593902001A9C00500F0A9
:1006E0009FFBE7E7000400400010024000B58BB01C
:1006F0000822002108A801F071FF1C22002101A896
:1007000001F06CFF1D481E4B0360002343608360B3
:100710001C4AC2600361836101F028FE002821D1D8
:1007200000230893099308A9144801F003FF002847
:100730001BD16023019300230293039305930022AE
:1007400001A90E4801F07EFE002811D1042201A962
:100750000A4801F077FE00280DD10848FFF79EFFF8
:100760000BB000BDFFF7A6FEDAE7FFF7A3FEE0E758
:10077000FFF7A0FEEAE7FFF79DFEEEE77805002011
:1007800000040040E70300000D488546FFF734FFF2
:100790000C480D490D4A002302E0D458C4500433DC
:1007A000C4188C42F9D30A4A0A4C002301E01360B2
:1007B0000432A242FBD301F0EFFEFFF7BEFEFEE7DC
:1007C00000100020000000203C040020E827000862
:1007D0003C040020C8050020FEE7000010B504001E
:1007E0000F4B1978FA208000FFF78EFC01000D4BAB
:1007F0001868FFF789FC00F03FFA00280DD1032CA0
:1008000001D901200AE0013000222100404200F01D
:10081000F7F9054B1C60002000E0012010BDC04628
:1008200004000020000000200800002010B5064A47
:10083000136810210B4313600320FFF7CFFFFFF76E
:1008400091FE002010BDC04600200240034A1168FE
:10085000034B1B785B1813607047C046C00500202F
:1008600004000020014B18687047C046C0050020F6
:1008700070B5041E00D1B4E0836B002B00D180E082
:10088000A36BDB0600D5A6E0226891680420050072
:100890000D40084200D09EE0A16B534B1940063337
:1008A000FF331943A163916801330B40012B6ED0D4
:1008B000D36818218B43A1680B43D3602268136966
:1008C0009B009B0861680B4313612268D36847490A
:1008D0000B40D360237E9B03627ED2031343A17E31
:1008E0004A031343A26A012A58D0802252011343BB
:1008F000E26813432269022A52D02B432422A25CCD
:1009000052001343E27E012A4CD0E269C221FF313A
:100910008A4202D0216A0A4313432168CA681A43F3
:10092000CA60E26A802149058A420DD0012A0BD0B3
:10093000022A09D0032A07D0042A05D0052A03D0A9
:10094000062A01D0072A0AD120684169072291436B
:10095000416120684169E56A2A400A434261226890
:10096000D26823490A409A422BD0A36B12229343A8
:10097000023A1343A363E36B0F3A1343E36301208B
:100980002EE0C36334228354FFF786FC78E71368B4
:10099000DB079AD4D3681B0497D489E72A00A6E71B
:1009A0000425AAE7002903D1802252021343ACE7B1
:1009B000A26B20210A43A263E26B1F390A43E26360
:1009C000A3E70023E363A36B03229343023A134399
:1009D000A363002004E0A36B10221343A363012050
:1009E00070BD0120FCE7C046FDFEFFFF1902FEFFBF
:1009F000E7FF3F83704770477047000070B5040001
:100A000003681D685E686A0701D5720703D42A0768
:100A100027D5320725D5A26BD20604D4A16B80223C
:100A200092000A43A263D968C0221201114212D176
:100A3000A27E002A0FD12A070DD59A6852072DD41D
:100A40005A680C218A435A60A36B1F4A1340043230
:100A5000FF321343A3632000FFF7CCFF23680C226F
:100A60001A602B0601D5330621D4EB0615D5F30603
:100A700013D5A36A012B03D02368DB68DB0709D5F4
:100A8000E36B02221343E36323680E321A602000F3
:100A9000FFF7B2FF236810221A6070BDA36B2022FB
:100AA0001343A363E36B1F3A1343E363D3E7A26BE0
:100AB00080235B021343A3632000FFF79CFF23689E
:100AC00080221A60D1E7C046FEFEFFFF30B583B03A
:100AD0000400002301933433C35C012B00D181E077
:100AE00034230122C25403689A68520770D43E4AE4
:100AF0004868904253D09A6A01200D68A84002438A
:100B00009A62E36A8022520593421ED0012B1CD0C8
:100B1000022B1AD0032B18D0042B16D0052B14D07F
:100B2000062B12D0072B10D02268506907230340F0
:100B30008868984209D0506907239843506120681B
:100B400042698D682B40134343610B681A00103AC9
:100B5000012A01D9002040E0244A1268102B09D054
:100B60008023DB031343214A13600B68102B04D04E
:100B7000002032E080231B04F4E71D4B18681D4958
:100B8000FFF7C2FA83001B185B00019302E0019B90
:100B9000013B0193019B002BF9D100201DE09A6AD3
:100BA00001200D68A84082439A620B681A00103A2F
:100BB000012A01D9002010E00C4A1268102B05D040
:100BC0000D4B1340094A1360002006E00B4BF8E779
:100BD000836B202213438363012034230022E254D9
:100BE00003B030BD0220FBE70110000008270140E0
:100BF0000000002040420F00FFFFBFFFFFFF7FFF0C
:100C000070B5002811DB8308134EC0339B009D593B
:100C100003242040C000FF2214008440A543890122
:100C20000A4082402A439A5170BD0F230340083B7B
:100C30009B0806339B00094A944663445C68032280
:100C40001040C000FC3215008540AC4389010A40C9
:100C5000824022435A60E7E700E100E000ED00E057
:100C6000002805DB1F2318401E3B8340014A136008
:100C70007047C04600E100E0013880235B049842E1
:100C80000FD2094A50600948036A1B021B0AC0219F
:100C900009060B43036200239360073313600020AF
:100CA00070470120FCE7C04610E000E000ED00E0E6
:100CB00010B504000068054B9C4660441421FFF702
:100CC00023FA80002064024BE36310BDF8FFFDBFF0
:100CD0000000024070B5041E20D021250223435598
:100CE00001680B680E4A1A40436880680343E06855
:100CF00003432069034360690343A0690343E06938
:100D0000034313430B602000FFF7D2FF0023A363CC
:100D1000012262551F32A354002070BD0120FCE760
:100D20000FC0FFFF10B52123C35C022B03D00423A7
:100D30008363012010BD026813680E218B4313608A
:100D400001680A6801239A430A60C26B1900046CA7
:100D5000A1405160212283541F330022C254436BAF
:100D6000002B02D098470020E4E70020E2E770B5AE
:100D7000C36B1A6804682568016C04238B401A420F
:100D800012D06B0710D523689B0603D42368042276
:100D900093432360C26B0423016C8B405360C36A8E
:100DA000002B00D0984770BD02238B401A4218D008
:100DB000AB0716D523689B0606D423680A22934303
:100DC00023602123093AC254C26B0223016C8B4079
:100DD000536020230022C254836A002BE3D098473B
:100DE000E1E708238B401A42DDD02B07DBD52368CF
:100DF0000E2293432360C26B01231900046CA140AF
:100E000051608363212283541F330022C254036B39
:100E1000002BC8D09847C6E72123C05CC0B27047FA
:100E2000F0B583B0002357E084685F000326BE401E
:100E3000B4432600CC68BC40344384604468944387
:100E40004A681609012232409A402243426053E028
:100E5000DC080834A400265805321A4092000F27F7
:100E60009740BE430F6997403A003243225057E003
:100E7000032600E00026A64034003C4302329200E4
:100E8000444E9451444A9468EA432600AE434F6866
:100E9000FF0201D52C4326003F4CA660E4682600E3
:100EA00016404F68BF0201D52C4326003A4CE6603D
:100EB0006468260016404F68BF0301D52C43260006
:100EC000354C6660246822404E68F60301D52A003E
:100ED0002243314C226001330C682200DA4057D0A3
:100EE00001229A40250015401442F4D003244E6894
:100EF0003440013C012C97D903224C682240032A3C
:100F000009D0C2685E000324B440A24314008A687A
:100F1000B2402243C26003224C682240022A97D08A
:100F200004685E0003221700B740BC434F683A4094
:100F3000B24022430260C02292024C681442CAD0DE
:100F4000164CA66901221643A661A46922400192AB
:100F5000019A9A08941CA4000E4EA75903241C4021
:100F6000A4000F26A640B7439026F605B04281D0D4
:100F70000B4EB04208D00B4EB04207D00A4EB042E2
:100F800000D175E7052676E7012674E7022672E7A9
:100F900003B0F0BD00000140000401400010024019
:100FA0000004004800080048000C0048002A01D056
:100FB000816170478162FCE703689A69920701D5F5
:100FC00000229A6203689A69D20703D49A690121C0
:100FD0000A439A61704730B5CB0709D54123C35CFA
:100FE00028221340282B01D0F22302E01A3300E01C
:100FF00000238A0709D544241C434122825C28250A
:101000002A40282A0FD0F42213430AB2002A0CDB0C
:1010100010290DD020290ED040290FD001680A6870
:101020009A430A6030BD2300EFE7B8221343EFE78D
:1010300090221343EEE720221343EDE740221343AF
:10104000ECE7000010B5041E60D04123C35C002B08
:1010500048D041232422E2542268136801218B43A3
:10106000136022682A4B61680B4013612268936801
:1010700028490B409360E368012B39D02268842310
:101080001B02A1680B439360E368022B37D02268F0
:10109000536821490B405360226851681F4B0B4332
:1010A00053602268D3681B490B40D360236962698F
:1010B0001343A269120221681343CB602268E369DB
:1010C000216A0B4313602268136801210B431360EC
:1010D0000023636441221F31A15423630132A354CE
:1010E000002010BD40330022C254FFF7A7F9B0E73B
:1010F000226880231B02A1680B439360C4E7226827
:10110000516880231B010B435360C5E70120E8E7CA
:10111000FFFFFFF0FF7FFFFFFFF7FFFF00800002F0
:1011200010B5036899691A68436B002B00D0984783
:1011300010BD70477047000010B5040003681A68BE
:1011400042210020605451040CD51A6819490A4004
:101150001A604123E35C292B0BD04123E35C2A2B4B
:1011600017D010BD1204F4D51A6813490A401A604A
:10117000EFE718332822E254203B236301212000AB
:10118000FFF729FF40230022E2542000FFF7D1FFA0
:10119000E7E717332822E2541F3B23630221200094
:1011A000FFF719FF40230022E2542000FFF7C2FF9F
:1011B000D7E7C046FFBFFFFFFF7FFFFF7047F8B5CF
:1011C00004004123C35C28221340282B06D0036867
:1011D0000822DA6140230022C254F8BD01688E69FA
:1011E000360C273B1E408D692D0CFE273D408B6839
:1011F0009B059B0DCA681740C268022A24D1DA09F0
:101200006A400620104211D1A26C0132A264A26C85
:10121000022AE2D10022A2640230C8614021625455
:101220001A0031002000FFF7C9FFD6E7802109022C
:101230002000FFF7D0FE40230022E2543A003100A4
:101240002000FFF7BBFFC8E780210902FFF7C3FEBC
:1012500040230022E2542A0031002000FFF7AEFFB5
:10126000BBE7704710B50400164BC362002303634D
:1012700041222020A0540132A35463634B0713D5AD
:1012800023685B6A626A1370636A01336362238D49
:10129000002B09D0013B2385638D013B9BB2638505
:1012A000636C04221343636407492000FFF793FE35
:1012B00023681022DA6140230022E2542000FFF765
:1012C000D0FF10BD0000FFFF038000007047704793
:1012D00010B54123C35C602B06D00023036340227A
:1012E0008354FFF7F3FF10BD1F3B2022C25400239D
:1012F000036320328354FFF7EAFFF4E710B50400DC
:101300004123C35C00204222A054434AE26260852C
:10131000626C0A436264283BDBB2022B1BD80321B8
:101320002000FFF758FE41232822E2543B4B636321
:10133000236BA26B002A03D0112B2DD0212B2BD095
:10134000E26B002A03D0122B46D0222B44D020007F
:10135000FFF7BEFF10BD32492000FFF73CFE200022
:10136000FFF72AFE4123E35C602B12D020234122A9
:10137000A354226891690B420BD09369DB0605D513
:101380001023D361636C0422134363642368202217
:10139000DA6100236363CBE723681A68520403D53C
:1013A0001A6820490A401A60A06BFFF735FD012832
:1013B0000ED0A36B1C4A5A6340230022E254A06B58
:1013C000FFF7B0FC0028C5D0A06B436B9847C1E77E
:1013D0002000FFF77DFFBDE723681A68120403D5DC
:1013E0001A6812490A401A60E06BFFF715FD0128E0
:1013F0000ED0E36B0C4A5A6340230022E254E06BA8
:10140000FFF790FC0028A5D0E06B436B9847A1E75D
:101410002000FFF75DFF9DE70000FFFF2916000891
:1014200003800000FFBFFFFFCB170008FF7FFFFF17
:10143000F8B504000D0001680E68C76A4123C25C5C
:10144000D3B22020C861212A0ED0292B0CD0222B08
:1014500075D02A2B73D0282B0CD16C492000FFF7B4
:10146000BAFD0023236305E069492000FFF7B3FDBF
:10147000212323632268516880231B020B4353609E
:101480002268536863490B4053602000FFF794FDC6
:1014900073045BD5226813685F490B401360A36B2C
:1014A000002B03D01B685B689BB263856B0711D56B
:1014B00004239D4323685B6A626A1370636A013385
:1014C0006362238D002B05D0013B2385638D013B97
:1014D0009BB26385638D9BB2002B03D0636C0422A7
:1014E00013436364EB0610D5F3060ED5638D9BB2F0
:1014F000002B50D14133E35C282B36D04123E35CF1
:10150000292B3BD023681022DA6100234222A35406
:101510006363636C002B50D1E26A404B9A4259D10D
:101520004123E35C222B65D041232022E254002397
:1015300023632032A3542000FFF7FBFD59E0384914
:101540002000FFF748FD2223236393E73304ADD542
:101550002268136833490B401360E36B002BA5D05E
:101560001B685B689BB26385A0E780239B049F4256
:10157000C4D129002000FFF775FEC6E7274B9F4224
:10158000C0D023681022DA612000FFF715FD20008B
:10159000FFF7D2FDB9E723681022DA61636C0C3AD9
:1015A00013436364002F03D080235B049F42ACD1BC
:1015B000616C2000FFF7A2FEA7E7616C2000FFF737
:1015C0009DFE4123E35C282B13D129002000FFF767
:1015D00049FE0EE02000FFF7AFFD104BE362412310
:1015E0002022E254002323632032A3542000FFF77B
:1015F00038FEF8BD1F332022E2540023236320323B
:10160000A3542000FFF796FDF3E7C04603800000D7
:101610000180000000E800FEFFBFFFFF0000FFFFA9
:1016200002800000FF7FFFFF70B50400C56A402301
:10163000C35C012B00D195E00123402023544809CD
:10164000034201D0930613D4CB0640D5D3063ED532
:10165000638D9BB2002B28D14133E35C282B0FD044
:101660004123E35C292B13D023681022DA6102E0C6
:101670002000FFF7DDFE40230022E254002070BD71
:1016800080239B049D42EBD12000FFF7EBFDF2E7A6
:10169000354B9D42E8D023681022DA612000FFF725
:1016A0008BFC2000FFF748FDE5E723681022DA6194
:1016B000636C0C3A13436364002D03D080235B04F6
:1016C0009D42D8D1616C2000FFF718FED3E74B078D
:1016D0001ED553071CD5638D9BB2002B0DD02368FC
:1016E0005B6A626A1370636A01336362238D013B34
:1016F0002385638D013B9BB26385638D9BB2002B79
:10170000B9D1194B9D42B6D02000FFF715FDB2E7C5
:101710000B0701D5130716D48B07ACD59307AAD5B1
:10172000638D9BB2002B12D02368626A12789A6292
:10173000636A01336362638D013B9BB26385238DD2
:10174000013B238597E72000FFF739FD93E78023CE
:101750005B049D4202D0002D00D08CE72000FFF7F3
:10176000EBFC88E702208AE70000FFFF70B5026803
:1017700093691168DC0508D50C0606D5446C012573
:101780002C43446480246400D4615A0509D50A06B8
:1017900007D5426C08242243426402688024E40096
:1017A000D4619B0509D50B0607D5436C0222134370
:1017B00043640368FF32FF32DA61416C0B230B4252
:1017C00000D170BDFFF79AFDFBE710B5406A836B4F
:1017D000002B01D000225A63C36B002B01D00022E2
:1017E0005A63FFF775FD10BDF0B54123C35C202B94
:1017F00020D12033C35C012B1ED04024012202558E
:1018000041252423435506683368934333600668B3
:1018100033680A4F3B4033600668336819433160D0
:1018200001680B6813430B602023435500230355C5
:101830000020F0BD0220FCE70220FAE7FFEFFFFFE7
:10184000F0B54123C35C202B1ED12033C35C012B98
:101850001CD040240122025541252423435506680B
:1018600033689343336006683368094F3B4009028D
:101870001943316001680B6813430B602023435503
:10188000002303550020F0BD0220FCE70220FAE708
:10189000FFF0FFFF70B582B0041E00D12EE2036896
:1018A000DB0726D5AE4B5A680C231340042B18D007
:1018B000AB4B5A680C231340082B0ED06368012BE6
:1018C0003CD0002B51D1A64B1A68A6490A401A6099
:1018D0001A68A5490A401A6036E0A14B5B68DB0331
:1018E000ECD59F4B1B689B0303D56368002B00D18D
:1018F00007E223689B0772D5994B5B680C221A425A
:101900005DD0974B5A680C231340082B53D0E368E3
:10191000002B00D185E0924A136801210B4313602C
:10192000FEF7A0FF05008E4B1B689B0770D4FEF7E7
:1019300099FF401B0228F6D90320E0E1884A11688C
:1019400080235B020B4313606368002B25D0FEF7F6
:1019500089FF0500824B1B689B03CAD4FEF782FFF8
:10196000401B6428F6D90320C9E1052B09D07C4B24
:101970001A687C490A401A601A687B490A401A6052
:10198000E2E7774B19688022D2020A431A6019688D
:10199000802252020A431A60D6E7FEF763FF050071
:1019A0006F4B1B689B03A4D5FEF75CFF401B6428AC
:1019B000F6D90320A3E16A4B5B68DB03A7D4684B2D
:1019C0001B689B0703D5E368012B00D09BE16449AA
:1019D0000B68F82293432269D20013430B602368FB
:1019E0001B0744D5E369002B2ED05D4A536A0121C1
:1019F0000B435362FEF736FF0500594B5B6A9B07AA
:101A000035D4FEF72FFF401B0228F6D9032076E1DC
:101A100053490B68F82293432269D20013430B60A9
:101A2000DDE74F4A136801218B431360FEF71AFF6D
:101A300005004B4B1B689B07D1D5FEF713FF401BDE
:101A40000228F6D903205AE1454A536A01218B4303
:101A50005362FEF707FF0500414B5B6A9B0706D503
:101A6000FEF700FF401B0228F6D9032047E1236858
:101A70005B0700D480E03A4BDB69DB001DD4384AB9
:101A8000D169802040050143D161D36903400193AE
:101A9000019B0125354B1B68DB0510D5A368012B85
:101AA00021D0002B36D12E4B1A6A01218A431A62AB
:101AB0001A6A03318A431A621AE00025EAE72B4AC0
:101AC000116880235B000B431360FEF7CBFE06001A
:101AD000264B1B68DB05E1D4FEF7C4FE801B64289F
:101AE000F6D903200BE11E4A136A01210B4313624E
:101AF000A368002B24D0FEF7B5FE0600184B1B6A26
:101B00009B0737D4FEF7AEFE801B194B9842F5D9E0
:101B10000320F4E0052B09D0114B1A6A01218A43F6
:101B20001A621A6A03318A431A62E1E70C4B1A6A95
:101B300004210A431A621A6A03390A431A62D7E770
:101B4000FEF790FE0600064B1B6A9B0712D5FEF7B8
:101B500089FE801B064B9842F5D90320CFE0C04692
:101B600000100240FFFFFEFFFFFFFBFF0070004080
:101B700088130000012D33D02368DB0610D563697C
:101B8000012B33D0053351D1654A536B04218B436C
:101B90005363536BF4318B43A169C9000B43536307
:101BA000236A002B00D1B0E05D4A51680C220A4044
:101BB000082A00D18AE0022B4FD0594A13685949AC
:101BC0000B401360FEF74EFE0400554B1B689B0153
:101BD0007AD5FEF747FE001B0228F6D903208EE0D7
:101BE0004F4AD36950490B40D361C5E74C4B5A6B00
:101BF00004210A435A635A6B03390A435A63FEF7B6
:101C000031FE0500464B5B6B9B0706D4FEF72AFEB0
:101C1000401B0228F6D9032071E041494B6BF822A2
:101C20009343A269D20013434B63B9E73C4B5A6B11
:101C300004210A435A635A6B03398A435A63FEF7F5
:101C400011FE0500364B5B6B9B07A9D5FEF70AFE1C
:101C5000401B0228F6D9032051E0314A136831496C
:101C60000B401360FEF7FEFD05002D4B1B689B012A
:101C700006D5FEF7F7FD401B0228F6D903203EE00B
:101C8000274BDA6A0F218A43E16A0A43DA625A680B
:101C900026490A40A16A606A01430A435A601968EA
:101CA000802252040A431A60FEF7DCFD04001C4B3C
:101CB0001B689B0106D4FEF7D5FD001B0228F6D950
:101CC00003201CE000201AE0002018E0012B1ED0A9
:101CD000134B5A68D96A80235B021340606A8342BF
:101CE00017D10F230B40E16A8B4214D1F0239B03E1
:101CF0001A40A36A9A4210D1002000E0012002B0ED
:101D000070BD0120FBE70120F9E70020F7E7012083
:101D1000F5E70120F3E70120F1E70120EFE7C046F6
:101D200000100240FFFFFFFEFFFFFFEFFFFFC2FFBB
:101D300010B5104B5A680C231340082B01D00E48E5
:101D400010BD910C073319400C48445C0949C96A1D
:101D50000B400B49C95CD30304D50748FEF7D4F9FF
:101D60006043EDE763011B1B9801C01AC000001916
:101D70000002E5E70010024000127A00B0270008D8
:101D8000C027000870B504000D00002800D17EE0D7
:101D9000434B1A68012313408B420AD240490B6817
:101DA000012293432B430B600B681A40AA4200D0D8
:101DB0006FE023689A070ED55B0705D5394A51684D
:101DC000E023DB000B435360364A5368F0218B431A
:101DD000A1680B4353602368DB072DD56368012B93
:101DE0001ED0022B22D02F4A1268920753D52D49BC
:101DF0004A680320824313434B60FEF733FD06001D
:101E0000284B5B680C221A4063689B009A4213D0EF
:101E1000FEF728FD801B244B9842F1D9032035E0C2
:101E2000204A12689203E2D401202FE01D4A126872
:101E30009201DCD4012029E0194B1A6801231340D8
:101E4000AB4209D916490B68012293432B430B601F
:101E50000B681A40AA4220D123685B0706D5114AB5
:101E6000536812490B40E1680B435360FFF760FF72
:101E70000C4B5A6812090F2313400D4AD35CD8400B
:101E80000C4B18600320FEF7A9FC002070BD012058
:101E9000FCE70120FAE70120F8E70120F6E7C04659
:101EA000002002400010024088130000FFF8FFFFEE
:101EB000A02700080000002070B582B0040003686D
:101EC000DB0337D53D4BDB69DB0049D43B4AD169A5
:101ED000802040050143D161D36903400193019BF8
:101EE0000125374B1B68DB053CD5344B1A6AC023F0
:101EF0009B00110019401A4213D0626813408B42B4
:101F00000FD02E4B186A2F4A02401E6A80214902C8
:101F100031431962196A2C4E314019621A62C307A3
:101F200034D4264A136A27490B4061680B43136275
:101F3000012D3AD02368DB0706D5204A136B032115
:101F40008B43A1680B43136323689B0632D51B4A5E
:101F5000136B10218B43E1680B43136300202AE0CD
:101F60000025BEE7164A116880235B000B4313600F
:101F7000FEF778FC0600124B1B68DB05B5D4FEF7B4
:101F800071FC801B6428F6D9032014E0FEF76AFC7C
:101F900006000A4B1B6A9B07C3D4FEF763FC801B39
:101FA0000A4B9842F5D9032005E0D36908490B4054
:101FB000D361BFE7002002B070BDC04600100240F0
:101FC00000700040FFFCFFFFFFFFFEFF88130000D2
:101FD000FFFFFFEF30B5036A026A0124A2430262E9
:101FE000426884697325AC430D682C430225AB43DA
:101FF0008D682B43114DA84205D0114DA84202D047
:10200000104DA84205D10825AB43CD682B430425CC
:10201000AB430A4DA84205D0094DA84202D0094D54
:10202000A84205D1084D2A404D692A438D692A43AB
:10203000426084614A684263036230BD002C014003
:102040000044014000480140FFFCFFFF70B5036AF7
:10205000026A184C224002624468C2697325AA438E
:102060000E681643144A13408A6812021343134A37
:10207000904216D0114A904205D0114A904202D0A7
:10208000104A904207D1104A22404C69240114435F
:102090008A6915012C434460C6614A68C2630362C1
:1020A00070BD0A4A1A40CB681B021343084A13400A
:1020B000E0E7C046FFFEFFFFFFFDFFFF002C0140F1
:1020C0000044014000480140FFCFFFFFFFF7FFFF42
:1020D000FFFBFFFF30B5036A026A114C2240026227
:1020E0004568C2690F4C22400C68240222430E4C02
:1020F0001C408B681B0323430C4CA04205D00C4CA6
:10210000A04202D00B4CA04204D10B4C25404C699C
:10211000A40125434560C2614A680264036230BD80
:10212000FFEFFFFFFF8CFFFFFFDFFFFF002C0140F1
:102130000044014000480140FFBFFFFF7047704767
:1021400070477047704770B504000368DE681D690A
:10215000AA070ED5B2070CD5032252421A610123F9
:10216000037703689B699B0751D0FFF7E9FF0023C2
:1021700023776B0712D5730710D5236805225242C7
:102180001A610223237723689A69C0239B001A42AD
:1021900043D02000FFF7D4FF002323772B0710D56F
:1021A00033070ED52368092252421A61042323778C
:1021B0002368DB699B0737D02000FFF7C1FF0023AE
:1021C0002377EB0612D5F30610D52368112252426D
:1021D0001A61082323772368DA69C0239B001A4217
:1021E00029D02000FFF7ACFF00232377EB0701D5B0
:1021F000F30727D42B0601D533062BD46B0601D564
:1022000073062FD4AB0601D5B30633D470BDFFF7E8
:1022100096FF2000FFF795FFA9E72000FFF78FFF4B
:102220002000FFF78EFFB7E72000FFF788FF2000B0
:10223000FFF787FFC3E72000FFF781FF2000FFF7CC
:1022400080FFD1E72368022252421A612000FFF783
:1022500075FFCFE72368812252421A61200000F007
:1022600098F9CBE72368412252421A612000FFF718
:1022700069FFC7E72368212252421A61200000F05B
:1022800087F9C3E703681D4A904202D01C4A904276
:1022900003D1702293434A681343184A90420BD0EB
:1022A000174A904208D0174A904205D0164A9042E9
:1022B00002D0164A904203D1154A1340CA6813430C
:1022C000802293434A69134303608B68C3620B689F
:1022D00083620A4B984205D00B4B984202D00B4BBD
:1022E000984201D10B6903630123436102691342E0
:1022F00003D003690122934303617047002C01401E
:10230000000400400020004000440140004801401B
:10231000FFFCFFFF70B5041E26D03D23C35C002BDD
:102320001CD03D2502236355210001C9FFF7AAFFF8
:1023300001234622A354083AA3540132A354013284
:10234000A3540132A3540132A3540132A3540132E5
:10235000A3540132A3546355002070BD3C330022C6
:10236000C254FEF77BF9DCE70120F6E770B5041EE6
:1023700026D03D23C35C002B1CD03D250223635592
:10238000210001C9FFF77EFF01234622A354083A2A
:10239000A3540132A3540132A3540132A354013295
:1023A000A3540132A3540132A3540132A354635500
:1023B000002070BD3C330022C254FEF739F9DCE73F
:1023C0000120F6E730B5036A026A1024A2430262D4
:1023D00045688469164A14400A6812021443202290
:1023E00093438A6812011343124A904216D0114A4D
:1023F000904205D0104A904202D0104A904207D134
:102400000F4A2A404D69AD0015438A699200154371
:10241000456084614A688263036230BD80229343D1
:102420001A00CB681B01134340229343DFE7C046E9
:10243000FF8CFFFF002C0140004401400048014098
:10244000FFF3FFFF70B504000D003C23C35C012BBC
:1024500000D16AE03C230121C154082A50D01CD885
:10246000002A38D0042A16D129000068FFF7AAFFF5
:102470002268916980231B010B4393612268936951
:102480002B490B40936121688B692A69120213431F
:102490008B6100201BE0080019E00C2A16D12900EE
:1024A0000068FFF717FE2268D16980231B010B43E8
:1024B000D3612268D3691E490B40D3612168CB697F
:1024C0002A6912021343CB61002000E001203C2363
:1024D0000022E25470BD29000068FFF77BFD2268EE
:1024E000936908210B4393612268936904398B43F4
:1024F00093612268936929690B4393610020E6E7A1
:1025000029000068FFF7A2FD2268D36908210B4368
:10251000D3612268D36904398B43D3612268D369BC
:1025200029690B43D3610020D1E70220D2E7C046DE
:10253000FFFBFFFF30B53C23C35C012B21D03C23C4
:102540000122C25401330132C25403685A689C68A4
:102550007025AA430D682A435A6003680A4A9342C9
:1025600002D00A4A934204D1802294434A68144319
:102570009C603D230122C254013B0022C254002032
:1025800030BD0220FCE7C046002C014000040040A2
:10259000704770477047000070B50C4D0C4E761BAD
:1025A000B61005D0002408CD01349847A642FAD1D0
:1025B00000F0EAF8074D084E761BB61005D000244F
:1025C00008CD01349847A642FAD170BDDC27000837
:1025D000DC270008DC270008E4270008F0B5050028
:1025E000830749D0541E002A45D003000326CAB2EF
:1025F00002E00135013C3ED301332A703342F8D169
:10260000032C30D9FF220A40150215432A04154332
:102610000F2C34D92700103F3F093E01B4461E005D
:102620001A0010366644156055609560D56010320A
:10263000B242F8D101373F01DB190F270C222740A6
:1026400022403C00002A0ED03E1FB608B400A4462B
:102650001A001C1D644420C2A242FCD1032401368E
:10266000B6009B193C40002C05D0C9B21C1919704A
:1026700001339C42FBD1F0BD03001400C0E72700EA
:10268000E2E7C046034B10B5002B02D0024800F031
:1026900005F810BD00000000AD26000810B50100CF
:1026A00000230022002000F019F810BD70B5074D7E
:1026B000074C641BA41005D0013CA300EB589847BD
:1026C000002CF9D100F066F870BDC046E427000880
:1026D000E82700087047C0467047C046F0B5D646A8
:1026E0004F464646C0B5264F82B00600386892462F
:1026F00098468946FFF7EEFF224B1B680193A423FF
:10270000019A5B00D558002D2ED06C681F2C30DC50
:10271000002E0FD1631C6B604B460234A400386856
:102720006351FFF7D9FF002002B0E0BCBA46B146C2
:10273000A846F0BD882251462800A300EB18995006
:10274000873AA2408930FF3001681143016084213B
:10275000404649005850022EDCD12B008D33FF3308
:1027600019680A431A60D5E715004D35FF35D55075
:10277000CBE73868FFF7B0FF01204042D4E7C046FE
:1027800038040020D0270008F8B5C046F8BC08BCC3
:102790009E467047F8B5C046F8BC08BC9E467047D8
:1027A0000000000000000000010203040607080901
:1027B00002030405060708090A0B0C0D0E0F101082
:1027C0000102030405060708090A0B0C0D0E0F1081
:0427D00010000020D5
:0827D400C0FDFF7F01000000C1
:0827DC0085260008E900000851
:0427E400C100000828
:1027E80000127A0001000000040000000000000050
:1027F80000000000FC02002064030020CC0300203D
:1028080000000000000000000000000000000000C0
:1028180000000000000000000000000000000000B0
:1028280000000000000000000000000000000000A0
:102838000000000000000000000000000000000090
:102848000000000000000000000000000000000080
:102858000000000000000000000000000000000070
:102868000000000000000000000000000000000060
:102878000000000000000000000000000000000050
:102888000000000000000000000000000000000040
:10289800000000000000000001000000000000002F
:1028A8000E33CDAB34126DE6ECDE05000B000000F4
:1028B8000000000000000000000000000000000010
:1028C8000000000000000000000000000000000000
:1028D80000000000000000000000000000000000F0
:1028E80000000000000000000000000000000000E0
:0C2C18000000000000000000C4050020C7
:04000005080007895F
:00000001FF
